// Jest Snapshot v1, https://goo.gl/fbAQLP

exports[`TxAnalyzer analyze transaction analyze transaction with revert 1`] = `
{
  "analyzeSummary": {
    "contractAddresses": [
      "0x68b3465833fb72a70ecdf485e0e4c7bd8665fc45",
      "0xc02aaa39b223fe8d0a0e5c4f27ead9083c756cc2",
      "0x1856bc58f5511269afe2ca1e89bf08cbdcd01100",
      "0xff72e5ca70a1ec9a9a3758a5638b3f299895add0",
    ],
    "contractSighashesInfo": [
      {
        "addresses": Set {
          "0x68b3465833fb72a70ecdf485e0e4c7bd8665fc45",
        },
        "found": true,
        "fragment": {
          "constant": false,
          "inputs": [
            {
              "name": "deadline",
              "type": "uint256",
            },
            {
              "name": "data",
              "type": "bytes[]",
            },
          ],
          "name": "multicall",
          "outputs": [
            {
              "type": "bytes[]",
            },
          ],
          "payable": true,
          "stateMutability": "payable",
          "type": "function",
        },
        "sighash": "0x5ae401dc",
      },
      {
        "addresses": Set {
          "0x68b3465833fb72a70ecdf485e0e4c7bd8665fc45",
        },
        "found": true,
        "fragment": {
          "constant": false,
          "inputs": [
            {
              "name": "amountIn",
              "type": "uint256",
            },
            {
              "name": "amountOutMin",
              "type": "uint256",
            },
            {
              "name": "path",
              "type": "address[]",
            },
            {
              "name": "to",
              "type": "address",
            },
          ],
          "name": "swapExactTokensForTokens",
          "outputs": [
            {
              "name": "amountOut",
              "type": "uint256",
            },
          ],
          "payable": true,
          "stateMutability": "payable",
          "type": "function",
        },
        "sighash": "0x472b43f3",
      },
      {
        "addresses": Set {
          "0xc02aaa39b223fe8d0a0e5c4f27ead9083c756cc2",
        },
        "found": true,
        "fragment": {
          "constant": false,
          "inputs": [],
          "name": "deposit",
          "outputs": [],
          "payable": true,
          "stateMutability": "payable",
          "type": "function",
        },
        "sighash": "0xd0e30db0",
      },
      {
        "addresses": Set {
          "0xc02aaa39b223fe8d0a0e5c4f27ead9083c756cc2",
          "0x1856bc58f5511269afe2ca1e89bf08cbdcd01100",
        },
        "found": true,
        "fragment": {
          "constant": false,
          "inputs": [
            {
              "name": "to",
              "type": "address",
            },
            {
              "name": "value",
              "type": "uint256",
            },
          ],
          "name": "transfer",
          "outputs": [
            {
              "type": "bool",
            },
          ],
          "payable": false,
          "type": "function",
        },
        "sighash": "0xa9059cbb",
      },
      {
        "addresses": Set {
          "0x1856bc58f5511269afe2ca1e89bf08cbdcd01100",
          "0xc02aaa39b223fe8d0a0e5c4f27ead9083c756cc2",
        },
        "found": true,
        "fragment": {
          "constant": true,
          "inputs": [
            {
              "type": "address",
            },
          ],
          "name": "balanceOf",
          "outputs": [
            {
              "type": "uint256",
            },
          ],
          "payable": false,
          "stateMutability": "view",
          "type": "function",
        },
        "sighash": "0x70a08231",
      },
      {
        "addresses": Set {
          "0xff72e5ca70a1ec9a9a3758a5638b3f299895add0",
        },
        "found": true,
        "fragment": {
          "constant": true,
          "inputs": [],
          "name": "getReserves",
          "outputs": [
            {
              "name": "_reserve0",
              "type": "uint112",
            },
            {
              "name": "_reserve1",
              "type": "uint112",
            },
            {
              "name": "_blockTimestampLast",
              "type": "uint32",
            },
          ],
          "payable": false,
          "stateMutability": "view",
          "type": "function",
        },
        "sighash": "0x0902f1ac",
      },
      {
        "addresses": Set {
          "0xff72e5ca70a1ec9a9a3758a5638b3f299895add0",
        },
        "found": true,
        "fragment": {
          "constant": false,
          "inputs": [
            {
              "name": "amount0Out",
              "type": "uint256",
            },
            {
              "name": "amount1Out",
              "type": "uint256",
            },
            {
              "name": "to",
              "type": "address",
            },
            {
              "name": "data",
              "type": "bytes",
            },
          ],
          "name": "swap",
          "outputs": [],
          "payable": false,
          "type": "function",
        },
        "sighash": "0x022c0d9f",
      },
    ],
  },
  "mainTraceLogList": [
    {
      "address": "0x68b3465833fb72a70ecdf485e0e4c7bd8665fc45",
      "blockNumber": "0xf66408",
      "decodedInput": [
        {
          "hex": "0x6393401f",
          "type": "BigNumber",
        },
        [
          "0x472b43f30000000000000000000000000000000000000000000000000214e8348c4f00000000000000000000000000000000000000000000004abdc3df33f3f799d71531000000000000000000000000000000000000000000000000000000000000008000000000000000000000000081d0474a020a7d0059c60a0adc7d89063e4bd8910000000000000000000000000000000000000000000000000000000000000002000000000000000000000000c02aaa39b223fe8d0a0e5c4f27ead9083c756cc20000000000000000000000001856bc58f5511269afe2ca1e89bf08cbdcd01100",
        ],
      ],
      "decodedOutput": [
        "Too little received",
      ],
      "depth": 0,
      "errorDescription": null,
      "functionFragment": FunctionFragment {
        "_isFragment": true,
        "constant": false,
        "gas": null,
        "inputs": [
          ParamType {
            "_isParamType": true,
            "arrayChildren": null,
            "arrayLength": null,
            "baseType": "uint256",
            "components": null,
            "indexed": null,
            "name": "deadline",
            "type": "uint256",
          },
          ParamType {
            "_isParamType": true,
            "arrayChildren": ParamType {
              "_isParamType": true,
              "arrayChildren": null,
              "arrayLength": null,
              "baseType": "bytes",
              "components": null,
              "indexed": null,
              "name": null,
              "type": "bytes",
            },
            "arrayLength": -1,
            "baseType": "array",
            "components": null,
            "indexed": null,
            "name": "data",
            "type": "bytes[]",
          },
        ],
        "name": "multicall",
        "outputs": [
          ParamType {
            "_isParamType": true,
            "arrayChildren": ParamType {
              "_isParamType": true,
              "arrayChildren": null,
              "arrayLength": null,
              "baseType": "bytes",
              "components": null,
              "indexed": null,
              "name": null,
              "type": "bytes",
            },
            "arrayLength": -1,
            "baseType": "array",
            "components": null,
            "indexed": null,
            "name": null,
            "type": "bytes[]",
          },
        ],
        "payable": true,
        "stateMutability": "payable",
        "type": "function",
      },
      "gasCost": 149444,
      "index": 0,
      "input": "0x5ae401dc000000000000000000000000000000000000000000000000000000006393401f00000000000000000000000000000000000000000000000000000000000000400000000000000000000000000000000000000000000000000000000000000001000000000000000000000000000000000000000000000000000000000000002000000000000000000000000000000000000000000000000000000000000000e4472b43f30000000000000000000000000000000000000000000000000214e8348c4f00000000000000000000000000000000000000000000004abdc3df33f3f799d71531000000000000000000000000000000000000000000000000000000000000008000000000000000000000000081d0474a020a7d0059c60a0adc7d89063e4bd8910000000000000000000000000000000000000000000000000000000000000002000000000000000000000000c02aaa39b223fe8d0a0e5c4f27ead9083c756cc20000000000000000000000001856bc58f5511269afe2ca1e89bf08cbdcd0110000000000000000000000000000000000000000000000000000000000",
      "isContract": true,
      "isReverted": true,
      "isSuccess": false,
      "output": "0x08c379a000000000000000000000000000000000000000000000000000000000000000200000000000000000000000000000000000000000000000000000000000000013546f6f206c6974746c6520726563656976656400000000000000000000000000",
      "passedGas": 187729,
      "pc": 0,
      "returnIndex": 6171,
      "stackTrace": [],
      "startIndex": 1,
      "storageAddress": "0x68b3465833fb72a70ecdf485e0e4c7bd8665fc45",
      "storageLogs": {
        "changedStorage": [],
        "loadedStorage": [],
        "returnedStorage": [],
      },
      "type": "CALL",
      "value": "0.15",
    },
    {
      "address": "0x68b3465833fb72a70ecdf485e0e4c7bd8665fc45",
      "blockNumber": "0xf66408",
      "decodedInput": [
        {
          "hex": "0x0214e8348c4f0000",
          "type": "BigNumber",
        },
        {
          "hex": "0x4abdc3df33f3f799d71531",
          "type": "BigNumber",
        },
        [
          "0xC02aaA39b223FE8D0A0e5C4F27eAD9083C756Cc2",
          "0x1856BC58f5511269aFE2CA1e89Bf08CBDCD01100",
        ],
        "0x81D0474a020A7d0059c60A0adc7d89063E4bD891",
      ],
      "decodedOutput": [
        "Too little received",
      ],
      "depth": 1,
      "errorDescription": null,
      "functionFragment": FunctionFragment {
        "_isFragment": true,
        "constant": false,
        "gas": null,
        "inputs": [
          ParamType {
            "_isParamType": true,
            "arrayChildren": null,
            "arrayLength": null,
            "baseType": "uint256",
            "components": null,
            "indexed": null,
            "name": "amountIn",
            "type": "uint256",
          },
          ParamType {
            "_isParamType": true,
            "arrayChildren": null,
            "arrayLength": null,
            "baseType": "uint256",
            "components": null,
            "indexed": null,
            "name": "amountOutMin",
            "type": "uint256",
          },
          ParamType {
            "_isParamType": true,
            "arrayChildren": ParamType {
              "_isParamType": true,
              "arrayChildren": null,
              "arrayLength": null,
              "baseType": "address",
              "components": null,
              "indexed": null,
              "name": null,
              "type": "address",
            },
            "arrayLength": -1,
            "baseType": "array",
            "components": null,
            "indexed": null,
            "name": "path",
            "type": "address[]",
          },
          ParamType {
            "_isParamType": true,
            "arrayChildren": null,
            "arrayLength": null,
            "baseType": "address",
            "components": null,
            "indexed": null,
            "name": "to",
            "type": "address",
          },
        ],
        "name": "swapExactTokensForTokens",
        "outputs": [
          ParamType {
            "_isParamType": true,
            "arrayChildren": null,
            "arrayLength": null,
            "baseType": "uint256",
            "components": null,
            "indexed": null,
            "name": "amountOut",
            "type": "uint256",
          },
        ],
        "payable": true,
        "stateMutability": "payable",
        "type": "function",
      },
      "gasCost": 146985,
      "index": 337,
      "input": "0x472b43f30000000000000000000000000000000000000000000000000214e8348c4f00000000000000000000000000000000000000000000004abdc3df33f3f799d71531000000000000000000000000000000000000000000000000000000000000008000000000000000000000000081d0474a020a7d0059c60a0adc7d89063e4bd8910000000000000000000000000000000000000000000000000000000000000002000000000000000000000000c02aaa39b223fe8d0a0e5c4f27ead9083c756cc20000000000000000000000001856bc58f5511269afe2ca1e89bf08cbdcd01100",
      "isContract": true,
      "isReverted": true,
      "isSuccess": false,
      "output": "0x08c379a000000000000000000000000000000000000000000000000000000000000000200000000000000000000000000000000000000000000000000000000000000013546f6f206c6974746c6520726563656976656400000000000000000000000000",
      "passedGas": 183509,
      "pc": 6737,
      "returnIndex": 5828,
      "stackTrace": [
        0,
      ],
      "startIndex": 338,
      "storageAddress": "0x68b3465833fb72a70ecdf485e0e4c7bd8665fc45",
      "storageLogs": {
        "changedStorage": [],
        "loadedStorage": [],
        "returnedStorage": [],
      },
      "type": "DELEGATECALL",
      "value": "0.0",
    },
    {
      "address": "0xc02aaa39b223fe8d0a0e5c4f27ead9083c756cc2",
      "blockNumber": "0xf66408",
      "decodedInput": [],
      "decodedOutput": [],
      "depth": 2,
      "errorDescription": null,
      "functionFragment": FunctionFragment {
        "_isFragment": true,
        "constant": false,
        "gas": null,
        "inputs": [],
        "name": "deposit",
        "outputs": [],
        "payable": true,
        "stateMutability": "payable",
        "type": "function",
      },
      "gasCost": 23974,
      "index": 939,
      "input": "0xd0e30db0",
      "isContract": true,
      "isSuccess": false,
      "output": "0x",
      "passedGas": 169342,
      "pc": 11864,
      "returnIndex": 1066,
      "stackTrace": [
        0,
        0,
      ],
      "startIndex": 940,
      "storageAddress": "0xc02aaa39b223fe8d0a0e5c4f27ead9083c756cc2",
      "storageLogs": {
        "changedStorage": [
          {
            "index": 1038,
            "initialValue": "0000000000000000000000000000000000000000000000000000000000000000",
            "key": "dc51a0a44317b550a6b5ddb34687ce2bd40e4750eec27343e32b23e686739208",
            "updatedValue": "0000000000000000000000000000000000000000000000000214e8348c4f0000",
          },
        ],
        "loadedStorage": [
          {
            "index": 1031,
            "key": "dc51a0a44317b550a6b5ddb34687ce2bd40e4750eec27343e32b23e686739208",
            "value": "0000000000000000000000000000000000000000000000000000000000000000",
          },
        ],
        "returnedStorage": [
          {
            "index": 1031,
            "key": "dc51a0a44317b550a6b5ddb34687ce2bd40e4750eec27343e32b23e686739208",
            "value": "0000000000000000000000000000000000000000000000000000000000000000",
          },
        ],
      },
      "type": "CALL",
      "value": "0.15",
    },
    {
      "address": "0xc02aaa39b223fe8d0a0e5c4f27ead9083c756cc2",
      "blockNumber": "0xf66408",
      "decodedInput": [
        "0xff72e5Ca70a1ec9a9A3758a5638b3f299895ADd0",
        {
          "hex": "0x0214e8348c4f0000",
          "type": "BigNumber",
        },
      ],
      "decodedOutput": [
        true,
      ],
      "depth": 2,
      "errorDescription": null,
      "functionFragment": FunctionFragment {
        "_isFragment": true,
        "constant": false,
        "gas": null,
        "inputs": [
          ParamType {
            "_isParamType": true,
            "arrayChildren": null,
            "arrayLength": null,
            "baseType": "address",
            "components": null,
            "indexed": null,
            "name": "to",
            "type": "address",
          },
          ParamType {
            "_isParamType": true,
            "arrayChildren": null,
            "arrayLength": null,
            "baseType": "uint256",
            "components": null,
            "indexed": null,
            "name": "value",
            "type": "uint256",
          },
        ],
        "name": "transfer",
        "outputs": [
          ParamType {
            "_isParamType": true,
            "arrayChildren": null,
            "arrayLength": null,
            "baseType": "bool",
            "components": null,
            "indexed": null,
            "name": null,
            "type": "bool",
          },
        ],
        "payable": false,
        "stateMutability": "nonpayable",
        "type": "function",
      },
      "gasCost": 8062,
      "index": 1131,
      "input": "0xa9059cbb000000000000000000000000ff72e5ca70a1ec9a9a3758a5638b3f299895add00000000000000000000000000000000000000000000000000214e8348c4f0000",
      "isContract": true,
      "isReverted": false,
      "isSuccess": false,
      "output": "0x0000000000000000000000000000000000000000000000000000000000000001",
      "passedGas": 145318,
      "pc": 12034,
      "returnIndex": 1404,
      "stackTrace": [
        0,
        1,
      ],
      "startIndex": 1132,
      "storageAddress": "0xc02aaa39b223fe8d0a0e5c4f27ead9083c756cc2",
      "storageLogs": {
        "changedStorage": [
          {
            "index": 1305,
            "initialValue": "0000000000000000000000000000000000000000000000000214e8348c4f0000",
            "key": "dc51a0a44317b550a6b5ddb34687ce2bd40e4750eec27343e32b23e686739208",
            "updatedValue": "0000000000000000000000000000000000000000000000000000000000000000",
          },
          {
            "index": 1336,
            "initialValue": "000000000000000000000000000000000000000000000000ca969e48aec6406c",
            "key": "24d2cfe545ef509d1b1421136bb0e3198ddcd926583dd9ee20b27444e87a4450",
            "updatedValue": "000000000000000000000000000000000000000000000000ccab867d3b15406c",
          },
        ],
        "loadedStorage": [
          {
            "index": 1251,
            "key": "dc51a0a44317b550a6b5ddb34687ce2bd40e4750eec27343e32b23e686739208",
            "value": "0000000000000000000000000000000000000000000000000214e8348c4f0000",
          },
          {
            "index": 1298,
            "key": "dc51a0a44317b550a6b5ddb34687ce2bd40e4750eec27343e32b23e686739208",
            "value": "0000000000000000000000000000000000000000000000000214e8348c4f0000",
          },
          {
            "index": 1329,
            "key": "24d2cfe545ef509d1b1421136bb0e3198ddcd926583dd9ee20b27444e87a4450",
            "value": "000000000000000000000000000000000000000000000000ca969e48aec6406c",
          },
        ],
        "returnedStorage": [
          {
            "index": 1251,
            "key": "dc51a0a44317b550a6b5ddb34687ce2bd40e4750eec27343e32b23e686739208",
            "value": "0000000000000000000000000000000000000000000000000214e8348c4f0000",
          },
          {
            "index": 1298,
            "key": "dc51a0a44317b550a6b5ddb34687ce2bd40e4750eec27343e32b23e686739208",
            "value": "0000000000000000000000000000000000000000000000000214e8348c4f0000",
          },
          {
            "index": 1329,
            "key": "24d2cfe545ef509d1b1421136bb0e3198ddcd926583dd9ee20b27444e87a4450",
            "value": "000000000000000000000000000000000000000000000000ca969e48aec6406c",
          },
        ],
      },
      "type": "CALL",
      "value": "0.0",
    },
    {
      "address": "0x1856bc58f5511269afe2ca1e89bf08cbdcd01100",
      "blockNumber": "0xf66408",
      "decodedInput": [
        "0x81D0474a020A7d0059c60A0adc7d89063E4bD891",
      ],
      "decodedOutput": [
        {
          "hex": "0x00",
          "type": "BigNumber",
        },
      ],
      "depth": 2,
      "errorDescription": null,
      "functionFragment": FunctionFragment {
        "_isFragment": true,
        "constant": true,
        "gas": null,
        "inputs": [
          ParamType {
            "_isParamType": true,
            "arrayChildren": null,
            "arrayLength": null,
            "baseType": "address",
            "components": null,
            "indexed": null,
            "name": null,
            "type": "address",
          },
        ],
        "name": "balanceOf",
        "outputs": [
          ParamType {
            "_isParamType": true,
            "arrayChildren": null,
            "arrayLength": null,
            "baseType": "uint256",
            "components": null,
            "indexed": null,
            "name": null,
            "type": "uint256",
          },
        ],
        "payable": false,
        "stateMutability": "view",
        "type": "function",
      },
      "gasCost": 2668,
      "index": 1568,
      "input": "0x70a0823100000000000000000000000081d0474a020a7d0059c60a0adc7d89063e4bd891",
      "isContract": true,
      "isReverted": false,
      "isSuccess": false,
      "output": "0x0000000000000000000000000000000000000000000000000000000000000000",
      "passedGas": 134198,
      "pc": 4376,
      "returnIndex": 1714,
      "stackTrace": [
        0,
        2,
      ],
      "startIndex": 1569,
      "storageAddress": "0x1856bc58f5511269afe2ca1e89bf08cbdcd01100",
      "storageLogs": {
        "changedStorage": [],
        "loadedStorage": [
          {
            "index": 1693,
            "key": "436c0a32b3a319a9044ce25ded44bf89461db999ce92bc0b58424d97e2d3023d",
            "value": "0000000000000000000000000000000000000000000000000000000000000000",
          },
        ],
        "returnedStorage": [
          {
            "index": 1693,
            "key": "436c0a32b3a319a9044ce25ded44bf89461db999ce92bc0b58424d97e2d3023d",
            "value": "0000000000000000000000000000000000000000000000000000000000000000",
          },
        ],
      },
      "type": "STATICCALL",
      "value": "0.0",
    },
    {
      "address": "0xff72e5ca70a1ec9a9a3758a5638b3f299895add0",
      "blockNumber": "0xf66408",
      "decodedInput": [],
      "decodedOutput": [
        {
          "hex": "0x1c5074921683c0b8eb485d4b",
          "type": "BigNumber",
        },
        {
          "hex": "0xca969e48aec6406c",
          "type": "BigNumber",
        },
        1670592815,
      ],
      "depth": 2,
      "errorDescription": null,
      "functionFragment": FunctionFragment {
        "_isFragment": true,
        "constant": true,
        "gas": null,
        "inputs": [],
        "name": "getReserves",
        "outputs": [
          ParamType {
            "_isParamType": true,
            "arrayChildren": null,
            "arrayLength": null,
            "baseType": "uint112",
            "components": null,
            "indexed": null,
            "name": "_reserve0",
            "type": "uint112",
          },
          ParamType {
            "_isParamType": true,
            "arrayChildren": null,
            "arrayLength": null,
            "baseType": "uint112",
            "components": null,
            "indexed": null,
            "name": "_reserve1",
            "type": "uint112",
          },
          ParamType {
            "_isParamType": true,
            "arrayChildren": null,
            "arrayLength": null,
            "baseType": "uint32",
            "components": null,
            "indexed": null,
            "name": "_blockTimestampLast",
            "type": "uint32",
          },
        ],
        "payable": false,
        "stateMutability": "view",
        "type": "function",
      },
      "gasCost": 2504,
      "index": 2137,
      "input": "0x0902f1ac",
      "isContract": true,
      "isReverted": false,
      "isSuccess": false,
      "output": "0x00000000000000000000000000000000000000001c5074921683c0b8eb485d4b000000000000000000000000000000000000000000000000ca969e48aec6406c000000000000000000000000000000000000000000000000000000006393392f",
      "passedGas": 127481,
      "pc": 12345,
      "returnIndex": 2249,
      "stackTrace": [
        0,
        3,
      ],
      "startIndex": 2138,
      "storageAddress": "0xff72e5ca70a1ec9a9a3758a5638b3f299895add0",
      "storageLogs": {
        "changedStorage": [],
        "loadedStorage": [
          {
            "index": 2195,
            "key": "0000000000000000000000000000000000000000000000000000000000000008",
            "value": "6393392f000000000000ca969e48aec6406c00001c5074921683c0b8eb485d4b",
          },
        ],
        "returnedStorage": [
          {
            "index": 2195,
            "key": "0000000000000000000000000000000000000000000000000000000000000008",
            "value": "6393392f000000000000ca969e48aec6406c00001c5074921683c0b8eb485d4b",
          },
        ],
      },
      "type": "STATICCALL",
      "value": "0.0",
    },
    {
      "address": "0xc02aaa39b223fe8d0a0e5c4f27ead9083c756cc2",
      "blockNumber": "0xf66408",
      "decodedInput": [
        "0xff72e5Ca70a1ec9a9A3758a5638b3f299895ADd0",
      ],
      "decodedOutput": [
        {
          "hex": "0xccab867d3b15406c",
          "type": "BigNumber",
        },
      ],
      "depth": 2,
      "errorDescription": null,
      "functionFragment": FunctionFragment {
        "_isFragment": true,
        "constant": true,
        "gas": null,
        "inputs": [
          ParamType {
            "_isParamType": true,
            "arrayChildren": null,
            "arrayLength": null,
            "baseType": "address",
            "components": null,
            "indexed": null,
            "name": null,
            "type": "address",
          },
        ],
        "name": "balanceOf",
        "outputs": [
          ParamType {
            "_isParamType": true,
            "arrayChildren": null,
            "arrayLength": null,
            "baseType": "uint256",
            "components": null,
            "indexed": null,
            "name": null,
            "type": "uint256",
          },
        ],
        "payable": false,
        "stateMutability": "view",
        "type": "function",
      },
      "gasCost": 534,
      "index": 2456,
      "input": "0x70a08231000000000000000000000000ff72e5ca70a1ec9a9a3758a5638b3f299895add0",
      "isContract": true,
      "isReverted": false,
      "isSuccess": false,
      "output": "0x000000000000000000000000000000000000000000000000ccab867d3b15406c",
      "passedGas": 124164,
      "pc": 4647,
      "returnIndex": 2566,
      "stackTrace": [
        0,
        4,
      ],
      "startIndex": 2457,
      "storageAddress": "0xc02aaa39b223fe8d0a0e5c4f27ead9083c756cc2",
      "storageLogs": {
        "changedStorage": [],
        "loadedStorage": [
          {
            "index": 2544,
            "key": "24d2cfe545ef509d1b1421136bb0e3198ddcd926583dd9ee20b27444e87a4450",
            "value": "000000000000000000000000000000000000000000000000ccab867d3b15406c",
          },
        ],
        "returnedStorage": [
          {
            "index": 2544,
            "key": "24d2cfe545ef509d1b1421136bb0e3198ddcd926583dd9ee20b27444e87a4450",
            "value": "000000000000000000000000000000000000000000000000ccab867d3b15406c",
          },
        ],
      },
      "type": "STATICCALL",
      "value": "0.0",
    },
    {
      "address": "0xff72e5ca70a1ec9a9a3758a5638b3f299895add0",
      "blockNumber": "0xf66408",
      "decodedInput": [
        {
          "hex": "0x4981080f33fdffb4fbb2bb",
          "type": "BigNumber",
        },
        {
          "hex": "0x00",
          "type": "BigNumber",
        },
        "0x81D0474a020A7d0059c60A0adc7d89063E4bD891",
        "0x",
      ],
      "decodedOutput": [],
      "depth": 2,
      "errorDescription": null,
      "functionFragment": FunctionFragment {
        "_isFragment": true,
        "constant": false,
        "gas": null,
        "inputs": [
          ParamType {
            "_isParamType": true,
            "arrayChildren": null,
            "arrayLength": null,
            "baseType": "uint256",
            "components": null,
            "indexed": null,
            "name": "amount0Out",
            "type": "uint256",
          },
          ParamType {
            "_isParamType": true,
            "arrayChildren": null,
            "arrayLength": null,
            "baseType": "uint256",
            "components": null,
            "indexed": null,
            "name": "amount1Out",
            "type": "uint256",
          },
          ParamType {
            "_isParamType": true,
            "arrayChildren": null,
            "arrayLength": null,
            "baseType": "address",
            "components": null,
            "indexed": null,
            "name": "to",
            "type": "address",
          },
          ParamType {
            "_isParamType": true,
            "arrayChildren": null,
            "arrayLength": null,
            "baseType": "bytes",
            "components": null,
            "indexed": null,
            "name": "data",
            "type": "bytes",
          },
        ],
        "name": "swap",
        "outputs": [],
        "payable": false,
        "stateMutability": "nonpayable",
        "type": "function",
      },
      "gasCost": 85628,
      "index": 3018,
      "input": "0x022c0d9f0000000000000000000000000000000000000000004981080f33fdffb4fbb2bb000000000000000000000000000000000000000000000000000000000000000000000000000000000000000081d0474a020a7d0059c60a0adc7d89063e4bd89100000000000000000000000000000000000000000000000000000000000000800000000000000000000000000000000000000000000000000000000000000000",
      "isContract": true,
      "isSuccess": false,
      "output": "0x",
      "passedGas": 121963,
      "pc": 12870,
      "returnIndex": 5407,
      "stackTrace": [
        0,
        5,
      ],
      "startIndex": 3019,
      "storageAddress": "0xff72e5ca70a1ec9a9a3758a5638b3f299895add0",
      "storageLogs": {
        "changedStorage": [
          {
            "index": 3156,
            "initialValue": "0000000000000000000000000000000000000000000000000000000000000001",
            "key": "000000000000000000000000000000000000000000000000000000000000000c",
            "updatedValue": "0000000000000000000000000000000000000000000000000000000000000000",
          },
          {
            "index": 4155,
            "initialValue": "6393392f000000000000ca969e48aec6406c00001c5074921683c0b8eb485d4b",
            "key": "0000000000000000000000000000000000000000000000000000000000000008",
            "updatedValue": "6393392f000000000000ccab867d3b15406c00001c06f38a074fc2b9364caa90",
          },
          {
            "index": 4241,
            "initialValue": "0000000000000000000000000000000000000000000000000000000000000000",
            "key": "000000000000000000000000000000000000000000000000000000000000000c",
            "updatedValue": "0000000000000000000000000000000000000000000000000000000000000001",
          },
        ],
        "loadedStorage": [
          {
            "index": 3148,
            "key": "000000000000000000000000000000000000000000000000000000000000000c",
            "value": "0000000000000000000000000000000000000000000000000000000000000001",
          },
          {
            "index": 3174,
            "key": "0000000000000000000000000000000000000000000000000000000000000008",
            "value": "6393392f000000000000ca969e48aec6406c00001c5074921683c0b8eb485d4b",
          },
          {
            "index": 3220,
            "key": "0000000000000000000000000000000000000000000000000000000000000006",
            "value": "0000000000000000000000001856bc58f5511269afe2ca1e89bf08cbdcd01100",
          },
          {
            "index": 3222,
            "key": "0000000000000000000000000000000000000000000000000000000000000007",
            "value": "000000000000000000000000c02aaa39b223fe8d0a0e5c4f27ead9083c756cc2",
          },
          {
            "index": 4087,
            "key": "0000000000000000000000000000000000000000000000000000000000000008",
            "value": "6393392f000000000000ca969e48aec6406c00001c5074921683c0b8eb485d4b",
          },
          {
            "index": 4121,
            "key": "0000000000000000000000000000000000000000000000000000000000000008",
            "value": "6393392f000000000000ca969e48aec6406c00001c5074921683c0b8eb485d4b",
          },
        ],
        "returnedStorage": [
          {
            "index": 3148,
            "key": "000000000000000000000000000000000000000000000000000000000000000c",
            "value": "0000000000000000000000000000000000000000000000000000000000000001",
          },
          {
            "index": 3174,
            "key": "0000000000000000000000000000000000000000000000000000000000000008",
            "value": "6393392f000000000000ca969e48aec6406c00001c5074921683c0b8eb485d4b",
          },
          {
            "index": 3220,
            "key": "0000000000000000000000000000000000000000000000000000000000000006",
            "value": "0000000000000000000000001856bc58f5511269afe2ca1e89bf08cbdcd01100",
          },
          {
            "index": 3222,
            "key": "0000000000000000000000000000000000000000000000000000000000000007",
            "value": "000000000000000000000000c02aaa39b223fe8d0a0e5c4f27ead9083c756cc2",
          },
          {
            "index": 4087,
            "key": "0000000000000000000000000000000000000000000000000000000000000008",
            "value": "6393392f000000000000ca969e48aec6406c00001c5074921683c0b8eb485d4b",
          },
          {
            "index": 4121,
            "key": "0000000000000000000000000000000000000000000000000000000000000008",
            "value": "6393392f000000000000ca969e48aec6406c00001c5074921683c0b8eb485d4b",
          },
        ],
      },
      "type": "CALL",
      "value": "0.0",
    },
    {
      "address": "0x1856bc58f5511269afe2ca1e89bf08cbdcd01100",
      "blockNumber": "0xf66408",
      "decodedInput": [
        "0x81D0474a020A7d0059c60A0adc7d89063E4bD891",
        {
          "hex": "0x4981080f33fdffb4fbb2bb",
          "type": "BigNumber",
        },
      ],
      "decodedOutput": [
        true,
      ],
      "depth": 3,
      "errorDescription": null,
      "functionFragment": FunctionFragment {
        "_isFragment": true,
        "constant": false,
        "gas": null,
        "inputs": [
          ParamType {
            "_isParamType": true,
            "arrayChildren": null,
            "arrayLength": null,
            "baseType": "address",
            "components": null,
            "indexed": null,
            "name": "to",
            "type": "address",
          },
          ParamType {
            "_isParamType": true,
            "arrayChildren": null,
            "arrayLength": null,
            "baseType": "uint256",
            "components": null,
            "indexed": null,
            "name": "value",
            "type": "uint256",
          },
        ],
        "name": "transfer",
        "outputs": [
          ParamType {
            "_isParamType": true,
            "arrayChildren": null,
            "arrayLength": null,
            "baseType": "bool",
            "components": null,
            "indexed": null,
            "name": null,
            "type": "bool",
          },
        ],
        "payable": false,
        "stateMutability": "nonpayable",
        "type": "function",
      },
      "gasCost": 63519,
      "index": 3446,
      "input": "0xa9059cbb00000000000000000000000081d0474a020a7d0059c60a0adc7d89063e4bd8910000000000000000000000000000000000000000004981080f33fdffb4fbb2bb",
      "isContract": true,
      "isReverted": false,
      "isSuccess": false,
      "output": "0x0000000000000000000000000000000000000000000000000000000000000001",
      "passedGas": 109353,
      "pc": 8468,
      "returnIndex": 4343,
      "stackTrace": [
        0,
        5,
        0,
      ],
      "startIndex": 3447,
      "storageAddress": "0x1856bc58f5511269afe2ca1e89bf08cbdcd01100",
      "storageLogs": {
        "changedStorage": [
          {
            "index": 3779,
            "initialValue": "0000000000000000000000000000000000000000000000000000000000f63ba4",
            "key": "3144f5a79fa9380177e1167156d5650aee56e1bd3061687654b135685f4fec3d",
            "updatedValue": "0000000000000000000000000000000000000000000000000000000000f66408",
          },
          {
            "index": 4225,
            "initialValue": "00000000000000000000000000000000000000001c5074921683c0b8eb485d4b",
            "key": "89b8a28925c4b1075331c30faebe4c6a84c4f8a635da428ed92f7362cbc37f13",
            "updatedValue": "00000000000000000000000000000000000000001c06f38a074fc2b9364caa90",
          },
          {
            "index": 4265,
            "initialValue": "0000000000000000000000000000000000000000000000000000000000000000",
            "key": "436c0a32b3a319a9044ce25ded44bf89461db999ce92bc0b58424d97e2d3023d",
            "updatedValue": "0000000000000000000000000000000000000000004981080f33fdffb4fbb2bb",
          },
        ],
        "loadedStorage": [
          {
            "index": 3581,
            "key": "0000000000000000000000000000000000000000000000000000000000000011",
            "value": "0000000000000000000000000000000000000000000000000000000000010101",
          },
          {
            "index": 3588,
            "key": "0000000000000000000000000000000000000000000000000000000000000005",
            "value": "0000000000000000000000000000000000000000000000000000000000000000",
          },
          {
            "index": 3607,
            "key": "0000000000000000000000000000000000000000000000000000000000000005",
            "value": "0000000000000000000000000000000000000000000000000000000000000000",
          },
          {
            "index": 3658,
            "key": "0000000000000000000000000000000000000000000000000000000000000005",
            "value": "0000000000000000000000000000000000000000000000000000000000000000",
          },
          {
            "index": 3672,
            "key": "0000000000000000000000000000000000000000000000000000000000000011",
            "value": "0000000000000000000000000000000000000000000000000000000000010101",
          },
          {
            "index": 3682,
            "key": "0000000000000000000000000000000000000000000000000000000000000013",
            "value": "0000000000000000000000000000000000000000000000000000000000000001",
          },
          {
            "index": 3689,
            "key": "0000000000000000000000000000000000000000000000000000000000000005",
            "value": "0000000000000000000000000000000000000000000000000000000000000000",
          },
          {
            "index": 3760,
            "key": "3144f5a79fa9380177e1167156d5650aee56e1bd3061687654b135685f4fec3d",
            "value": "0000000000000000000000000000000000000000000000000000000000f63ba4",
          },
          {
            "index": 3798,
            "key": "55ae30bf593963563230282021fbdd8820d2d25760c7bfcc07c4a9713f5b5ed8",
            "value": "0000000000000000000000000000000000000000000000000000000000000001",
          },
          {
            "index": 3823,
            "key": "51822d5befbb2444f41fba0e85428d06d568e5871eab399ac9159c3fbfd25a98",
            "value": "0000000000000000000000000000000000000000000000000000000000000000",
          },
          {
            "index": 3832,
            "key": "0000000000000000000000000000000000000000000000000000000000000008",
            "value": "000000000000000000000000000000000000000009b18ab5df7180b6b8000000",
          },
          {
            "index": 3840,
            "key": "000000000000000000000000000000000000000000000000000000000000000a",
            "value": "000000000000000000000000000000000000000009b18ab5df7180b6b8000000",
          },
          {
            "index": 3859,
            "key": "436c0a32b3a319a9044ce25ded44bf89461db999ce92bc0b58424d97e2d3023d",
            "value": "0000000000000000000000000000000000000000000000000000000000000000",
          },
          {
            "index": 3900,
            "key": "a18f3b849ab02aacb3dfbc9b87fff51fc992c5cac1e2b7a0970c2ef0856e2dae",
            "value": "0000000000000000000000000000000000000000000000000000000000000000",
          },
          {
            "index": 3902,
            "key": "0000000000000000000000000000000000000000000000000000000000000009",
            "value": "000000000000000000000000000000000000000000295be96e64066972000000",
          },
          {
            "index": 3938,
            "key": "0000000000000000000000000000000000000000000000000000000000000005",
            "value": "0000000000000000000000000000000000000000000000000000000000000000",
          },
          {
            "index": 3969,
            "key": "adb8ff3e1f7742ca6331f2ce89560fd43e7faa0cfda1eef7a82a50a79db8108f",
            "value": "0000000000000000000000000000000000000000000000000000000000000000",
          },
          {
            "index": 3993,
            "key": "0000000000000000000000000000000000000000000000000000000000000005",
            "value": "0000000000000000000000000000000000000000000000000000000000000000",
          },
          {
            "index": 4011,
            "key": "2cd7598ef3ab9a7d3772351a42c5b2f65c101d4db7b2db9a4f52c78931813e17",
            "value": "0000000000000000000000000000000000000000000000000000000000000000",
          },
          {
            "index": 4045,
            "key": "29dfac2669277a0d15017ba5d948fc83ee7fceeabad55f1352767567860fa2c5",
            "value": "0000000000000000000000000000000000000000000000000000000000000000",
          },
          {
            "index": 4075,
            "key": "adb8ff3e1f7742ca6331f2ce89560fd43e7faa0cfda1eef7a82a50a79db8108f",
            "value": "0000000000000000000000000000000000000000000000000000000000000000",
          },
          {
            "index": 4104,
            "key": "55ae30bf593963563230282021fbdd8820d2d25760c7bfcc07c4a9713f5b5ed8",
            "value": "0000000000000000000000000000000000000000000000000000000000000001",
          },
          {
            "index": 4114,
            "key": "0000000000000000000000000000000000000000000000000000000000000014",
            "value": "0000000000000000000000000000000000000000000000000000000000000000",
          },
          {
            "index": 4193,
            "key": "89b8a28925c4b1075331c30faebe4c6a84c4f8a635da428ed92f7362cbc37f13",
            "value": "00000000000000000000000000000000000000001c5074921683c0b8eb485d4b",
          },
          {
            "index": 4235,
            "key": "436c0a32b3a319a9044ce25ded44bf89461db999ce92bc0b58424d97e2d3023d",
            "value": "0000000000000000000000000000000000000000000000000000000000000000",
          },
        ],
        "returnedStorage": [
          {
            "index": 3581,
            "key": "0000000000000000000000000000000000000000000000000000000000000011",
            "value": "0000000000000000000000000000000000000000000000000000000000010101",
          },
          {
            "index": 3588,
            "key": "0000000000000000000000000000000000000000000000000000000000000005",
            "value": "0000000000000000000000000000000000000000000000000000000000000000",
          },
          {
            "index": 3607,
            "key": "0000000000000000000000000000000000000000000000000000000000000005",
            "value": "0000000000000000000000000000000000000000000000000000000000000000",
          },
          {
            "index": 3658,
            "key": "0000000000000000000000000000000000000000000000000000000000000005",
            "value": "0000000000000000000000000000000000000000000000000000000000000000",
          },
          {
            "index": 3672,
            "key": "0000000000000000000000000000000000000000000000000000000000000011",
            "value": "0000000000000000000000000000000000000000000000000000000000010101",
          },
          {
            "index": 3682,
            "key": "0000000000000000000000000000000000000000000000000000000000000013",
            "value": "0000000000000000000000000000000000000000000000000000000000000001",
          },
          {
            "index": 3689,
            "key": "0000000000000000000000000000000000000000000000000000000000000005",
            "value": "0000000000000000000000000000000000000000000000000000000000000000",
          },
          {
            "index": 3760,
            "key": "3144f5a79fa9380177e1167156d5650aee56e1bd3061687654b135685f4fec3d",
            "value": "0000000000000000000000000000000000000000000000000000000000f63ba4",
          },
          {
            "index": 3798,
            "key": "55ae30bf593963563230282021fbdd8820d2d25760c7bfcc07c4a9713f5b5ed8",
            "value": "0000000000000000000000000000000000000000000000000000000000000001",
          },
          {
            "index": 3823,
            "key": "51822d5befbb2444f41fba0e85428d06d568e5871eab399ac9159c3fbfd25a98",
            "value": "0000000000000000000000000000000000000000000000000000000000000000",
          },
          {
            "index": 3832,
            "key": "0000000000000000000000000000000000000000000000000000000000000008",
            "value": "000000000000000000000000000000000000000009b18ab5df7180b6b8000000",
          },
          {
            "index": 3840,
            "key": "000000000000000000000000000000000000000000000000000000000000000a",
            "value": "000000000000000000000000000000000000000009b18ab5df7180b6b8000000",
          },
          {
            "index": 3859,
            "key": "436c0a32b3a319a9044ce25ded44bf89461db999ce92bc0b58424d97e2d3023d",
            "value": "0000000000000000000000000000000000000000000000000000000000000000",
          },
          {
            "index": 3900,
            "key": "a18f3b849ab02aacb3dfbc9b87fff51fc992c5cac1e2b7a0970c2ef0856e2dae",
            "value": "0000000000000000000000000000000000000000000000000000000000000000",
          },
          {
            "index": 3902,
            "key": "0000000000000000000000000000000000000000000000000000000000000009",
            "value": "000000000000000000000000000000000000000000295be96e64066972000000",
          },
          {
            "index": 3938,
            "key": "0000000000000000000000000000000000000000000000000000000000000005",
            "value": "0000000000000000000000000000000000000000000000000000000000000000",
          },
          {
            "index": 3969,
            "key": "adb8ff3e1f7742ca6331f2ce89560fd43e7faa0cfda1eef7a82a50a79db8108f",
            "value": "0000000000000000000000000000000000000000000000000000000000000000",
          },
          {
            "index": 3993,
            "key": "0000000000000000000000000000000000000000000000000000000000000005",
            "value": "0000000000000000000000000000000000000000000000000000000000000000",
          },
          {
            "index": 4011,
            "key": "2cd7598ef3ab9a7d3772351a42c5b2f65c101d4db7b2db9a4f52c78931813e17",
            "value": "0000000000000000000000000000000000000000000000000000000000000000",
          },
          {
            "index": 4045,
            "key": "29dfac2669277a0d15017ba5d948fc83ee7fceeabad55f1352767567860fa2c5",
            "value": "0000000000000000000000000000000000000000000000000000000000000000",
          },
          {
            "index": 4075,
            "key": "adb8ff3e1f7742ca6331f2ce89560fd43e7faa0cfda1eef7a82a50a79db8108f",
            "value": "0000000000000000000000000000000000000000000000000000000000000000",
          },
          {
            "index": 4104,
            "key": "55ae30bf593963563230282021fbdd8820d2d25760c7bfcc07c4a9713f5b5ed8",
            "value": "0000000000000000000000000000000000000000000000000000000000000001",
          },
          {
            "index": 4114,
            "key": "0000000000000000000000000000000000000000000000000000000000000014",
            "value": "0000000000000000000000000000000000000000000000000000000000000000",
          },
          {
            "index": 4193,
            "key": "89b8a28925c4b1075331c30faebe4c6a84c4f8a635da428ed92f7362cbc37f13",
            "value": "00000000000000000000000000000000000000001c5074921683c0b8eb485d4b",
          },
          {
            "index": 4235,
            "key": "436c0a32b3a319a9044ce25ded44bf89461db999ce92bc0b58424d97e2d3023d",
            "value": "0000000000000000000000000000000000000000000000000000000000000000",
          },
        ],
      },
      "type": "CALL",
      "value": "0.0",
    },
    {
      "address": "0x1856bc58f5511269afe2ca1e89bf08cbdcd01100",
      "blockNumber": "0xf66408",
      "decodedInput": [
        "0xff72e5Ca70a1ec9a9A3758a5638b3f299895ADd0",
      ],
      "decodedOutput": [
        {
          "hex": "0x1c06f38a074fc2b9364caa90",
          "type": "BigNumber",
        },
      ],
      "depth": 3,
      "errorDescription": null,
      "functionFragment": FunctionFragment {
        "_isFragment": true,
        "constant": true,
        "gas": null,
        "inputs": [
          ParamType {
            "_isParamType": true,
            "arrayChildren": null,
            "arrayLength": null,
            "baseType": "address",
            "components": null,
            "indexed": null,
            "name": null,
            "type": "address",
          },
        ],
        "name": "balanceOf",
        "outputs": [
          ParamType {
            "_isParamType": true,
            "arrayChildren": null,
            "arrayLength": null,
            "baseType": "uint256",
            "components": null,
            "indexed": null,
            "name": null,
            "type": "uint256",
          },
        ],
        "payable": false,
        "stateMutability": "view",
        "type": "function",
      },
      "gasCost": 668,
      "index": 4478,
      "input": "0x70a08231000000000000000000000000ff72e5ca70a1ec9a9a3758a5638b3f299895add0",
      "isContract": true,
      "isReverted": false,
      "isSuccess": false,
      "output": "0x00000000000000000000000000000000000000001c06f38a074fc2b9364caa90",
      "passedGas": 46205,
      "pc": 2610,
      "returnIndex": 4624,
      "stackTrace": [
        0,
        5,
        1,
      ],
      "startIndex": 4479,
      "storageAddress": "0x1856bc58f5511269afe2ca1e89bf08cbdcd01100",
      "storageLogs": {
        "changedStorage": [],
        "loadedStorage": [
          {
            "index": 4603,
            "key": "89b8a28925c4b1075331c30faebe4c6a84c4f8a635da428ed92f7362cbc37f13",
            "value": "00000000000000000000000000000000000000001c06f38a074fc2b9364caa90",
          },
        ],
        "returnedStorage": [
          {
            "index": 4603,
            "key": "89b8a28925c4b1075331c30faebe4c6a84c4f8a635da428ed92f7362cbc37f13",
            "value": "00000000000000000000000000000000000000001c06f38a074fc2b9364caa90",
          },
        ],
      },
      "type": "STATICCALL",
      "value": "0.0",
    },
    {
      "address": "0xc02aaa39b223fe8d0a0e5c4f27ead9083c756cc2",
      "blockNumber": "0xf66408",
      "decodedInput": [
        "0xff72e5Ca70a1ec9a9A3758a5638b3f299895ADd0",
      ],
      "decodedOutput": [
        {
          "hex": "0xccab867d3b15406c",
          "type": "BigNumber",
        },
      ],
      "depth": 3,
      "errorDescription": null,
      "functionFragment": FunctionFragment {
        "_isFragment": true,
        "constant": true,
        "gas": null,
        "inputs": [
          ParamType {
            "_isParamType": true,
            "arrayChildren": null,
            "arrayLength": null,
            "baseType": "address",
            "components": null,
            "indexed": null,
            "name": null,
            "type": "address",
          },
        ],
        "name": "balanceOf",
        "outputs": [
          ParamType {
            "_isParamType": true,
            "arrayChildren": null,
            "arrayLength": null,
            "baseType": "uint256",
            "components": null,
            "indexed": null,
            "name": null,
            "type": "uint256",
          },
        ],
        "payable": false,
        "stateMutability": "view",
        "type": "function",
      },
      "gasCost": 534,
      "index": 4695,
      "input": "0x70a08231000000000000000000000000ff72e5ca70a1ec9a9a3758a5638b3f299895add0",
      "isContract": true,
      "isReverted": false,
      "isSuccess": false,
      "output": "0x000000000000000000000000000000000000000000000000ccab867d3b15406c",
      "passedGas": 45142,
      "pc": 2766,
      "returnIndex": 4805,
      "stackTrace": [
        0,
        5,
        2,
      ],
      "startIndex": 4696,
      "storageAddress": "0xc02aaa39b223fe8d0a0e5c4f27ead9083c756cc2",
      "storageLogs": {
        "changedStorage": [],
        "loadedStorage": [
          {
            "index": 4783,
            "key": "24d2cfe545ef509d1b1421136bb0e3198ddcd926583dd9ee20b27444e87a4450",
            "value": "000000000000000000000000000000000000000000000000ccab867d3b15406c",
          },
        ],
        "returnedStorage": [
          {
            "index": 4783,
            "key": "24d2cfe545ef509d1b1421136bb0e3198ddcd926583dd9ee20b27444e87a4450",
            "value": "000000000000000000000000000000000000000000000000ccab867d3b15406c",
          },
        ],
      },
      "type": "STATICCALL",
      "value": "0.0",
    },
    {
      "address": "0x1856bc58f5511269afe2ca1e89bf08cbdcd01100",
      "blockNumber": "0xf66408",
      "decodedInput": [
        "0x81D0474a020A7d0059c60A0adc7d89063E4bD891",
      ],
      "decodedOutput": [
        {
          "hex": "0x4981080f33fdffb4fbb2bb",
          "type": "BigNumber",
        },
      ],
      "depth": 2,
      "errorDescription": null,
      "functionFragment": FunctionFragment {
        "_isFragment": true,
        "constant": true,
        "gas": null,
        "inputs": [
          ParamType {
            "_isParamType": true,
            "arrayChildren": null,
            "arrayLength": null,
            "baseType": "address",
            "components": null,
            "indexed": null,
            "name": null,
            "type": "address",
          },
        ],
        "name": "balanceOf",
        "outputs": [
          ParamType {
            "_isParamType": true,
            "arrayChildren": null,
            "arrayLength": null,
            "baseType": "uint256",
            "components": null,
            "indexed": null,
            "name": null,
            "type": "uint256",
          },
        ],
        "payable": false,
        "stateMutability": "view",
        "type": "function",
      },
      "gasCost": 668,
      "index": 5565,
      "input": "0x70a0823100000000000000000000000081d0474a020a7d0059c60a0adc7d89063e4bd891",
      "isContract": true,
      "isReverted": false,
      "isSuccess": false,
      "output": "0x0000000000000000000000000000000000000000004981080f33fdffb4fbb2bb",
      "passedGas": 36982,
      "pc": 4647,
      "returnIndex": 5711,
      "stackTrace": [
        0,
        6,
      ],
      "startIndex": 5566,
      "storageAddress": "0x1856bc58f5511269afe2ca1e89bf08cbdcd01100",
      "storageLogs": {
        "changedStorage": [],
        "loadedStorage": [
          {
            "index": 5690,
            "key": "436c0a32b3a319a9044ce25ded44bf89461db999ce92bc0b58424d97e2d3023d",
            "value": "0000000000000000000000000000000000000000004981080f33fdffb4fbb2bb",
          },
        ],
        "returnedStorage": [
          {
            "index": 5690,
            "key": "436c0a32b3a319a9044ce25ded44bf89461db999ce92bc0b58424d97e2d3023d",
            "value": "0000000000000000000000000000000000000000004981080f33fdffb4fbb2bb",
          },
        ],
      },
      "type": "STATICCALL",
      "value": "0.0",
    },
  ],
}
`;
